:020000041000EA
:1000000000B5324B212058609868022188439860DF
:10001000D860186158612E4B002199600221596106
:100020000121F02299502B49196001219960352056
:1000300000F044F80222904214D00621196600F024
:1000400034F8196E01211966002018661A6600F04E
:100050002CF8196E196E196E052000F02FF8012189
:100060000842F9D1002199601B49196000215960AB
:100070001A491B48016001219960EB211966A021F2
:10008000196600F012F800219960164914480160C1
:100090000121996001BC002800D000471248134993
:1000A000086003C880F30888084703B5996A0420EC
:1000B0000142FBD001200142F8D103BD02B5186610
:1000C0001866FFF7F2FF186E186E02BD00000240BE
:1000D000000000180000070000035F00212200005C
:1000E000F4000018222000A00001001008ED00E03C
:1000F00000000000000000000000000074B24E7A12
:1001000000200420F7010010C3010010C5010010F9
:10011000C1010010C1010010C1010010C101001097
:10012000C1010010C1010010C1010010C701001081
:10013000C1010010C1010010C9010010CB01001065
:10014000CD010010CD010010CD010010CD01001037
:10015000CD010010CD010010CD010010CD01001027
:10016000CD010010CD010010CD010010CD01001017
:10017000CD010010CD010010CD010010CD01001007
:10018000CD010010CD010010CD010010CD010010F7
:10019000CD010010CD010010CD010010CD010010E7
:1001A000CD010010CD010010CD010010CD010010D7
:1001B000CD010010CD010010CD010010CD010010C7
:1001C00000BE00BE00BE00BE00BE00BEEFF3058054
:1001D000103800BEF2EB88718CB70510B4B705106B
:1001E0003802001090A31AE71E481F49086006C88D
:1001F00081F3088810471D480068002801D019487D
:10020000F3E70DA40ECC002902D000F012F8F9E7B4
:100210001749184A002000E001C19142FCD116495B
:100220008847164988471649884700BEFDE701C937
:1002300001C29A42FBD37047B4B70510E00000201A
:10024000E40B0020B8C205100000042000000420C8
:10025000B8C20510001004200010042000000000A7
:10026000704700000000000008ED00E0000000D032
:10027000E40B00205CC00020393C01108508001010
:10028000F93B0110F8B5C04606480749091A8B101A
:10029000C90FC91810B5491003D0044B002B00D06A
:1002A000984710BDE40B0020E40B00200000000084
:1002B000054B10B5002B03D00449054800E000BFF2
:1002C000FFF7E2FF10BDC04600000000A4BA002006
:1002D0008CA5011070B50C0005000949012011F032
:1002E00069FF92230835DB0004600100C55020003F
:1002F00004F09AFE2000034904F09AFE002070BD2D
:10030000940400005107001010B50400002013F001
:10031000D7FD20239843442807D111F0C7F80CF0EB
:10032000A5FE11F0CDF80123237110BDF8B5CE461E
:100330004746354B80B51B78DAB29146002B59D031
:100340000121324B1A784A401A701A78002A43D198
:10035000D02280211206890191611B78002B43D0A5
:10036000D02380221B06D2005A618022284E002111
:100370003000D20011F050FF264B45249846142738
:100380003DB2230029001E22300000F09FFF29000B
:100390007D1C23001F2230002DB200F097FF2300A8
:1003A0001E222900300000F091FF23001F222900A7
:1003B000300000F08BFF01239C46E04443461C784C
:1003C0000C37002CDCD13000134900F033FF4846D5
:1003D000C0BCB946B046F8BDD022802112068901C2
:1003E00051611B78002BBBD1D02380221B06D20089
:1003F0009A61BAE7D02380221B0692019A6180227B
:10040000D2009A61E3E7C0464AC0002050C00020F5
:10041000F4BB002090A50110E4200020F0B580225C
:10042000C646484C0021200000B5D20011F0F4FE71
:1004300000254923444E29B200222000013600F055
:1004400045FF33780635002BF5D1404B53259846B0
:1004500014273EB22B0031001422200000F036FF9A
:1004600031007E1C2B001522200036B200F02EFF3A
:100470002B0014223100200000F028FF2B00152251
:100480003100200000F022FF01239C46E044434657
:100490001D780C37002DDCD12D4B32279846453581
:1004A0003EB22B0031002322200000F00FFF31006C
:1004B0007E1C2B002422200036B200F007FF2B0008
:1004C00023223100200000F001FF2B002422310004
:1004D000200000F0FBFE01239C46E04443461D78CB
:1004E0000C37002DDCD11B4B1427984652353EB2F9
:1004F0002B0031003222200000F0E8FE31007E1C8B
:100500002B003322200036B200F0E0FE2B00322216
:100510003100200000F0DAFE2B00332231002000F1
:1005200000F0D4FE01239C46E04443461D780C377E
:10053000002DDCD12000084900F07CFE80BCB846CC
:10054000F0BDC046F4BB002098A50110B4A5011071
:10055000BCA50110C0A50110E420002010B50D209D
:1005600002F062FDD024802324069B0163620B20ED
:10057000A36102F059FD80231B0163620C20A3617B
:1005800002F052FD80235B0163620A20A36102F046
:100590004BFD8023DB006362A36110BD30B589B0E1
:1005A00007AB00935B4906AB05AA040014F098FD65
:1005B000032800D174E02000574915F081F8002885
:1005C00004D0D02380221B0692015A612000534997
:1005D00015F076F8002804D0D02380221B06920163
:1005E0009A6120004E4915F06BF8002804D0D02302
:1005F00080221B0612015A6120004A4915F060F85A
:10060000002804D0D02380221B0612019A6120000A
:10061000454915F055F8002804D0D02380221B0648
:1006200052015A612000414915F04AF8002804D0CF
:10063000D02380221B0652019A6120003C4915F00C
:100640003FF8002804D0D02380221B06D2005A6134
:100650002000384915F034F8002804D0D023802237
:100660001B06D2009A612000334915F029F8051EB7
:100670002FD0324A1378DCB2002B03D0FFF7CEFE26
:1006800009B030BD0133137001F07AFD2C4B2D4AB7
:1006900002932D4B01940093002301F073FFEDE7CB
:1006A000059B002B28D1D02380221B0692019A6142
:1006B000069B002B28D0D02380221B0612015A61F2
:1006C000079B002BB4D0D02380221B0652015A6115
:1006D000B3E720001D4914F0F3FF0028CED0174BDC
:1006E00080221D70D02392011B069A618022D200C5
:1006F0009A61FFF793FEC1E7D02380221B06920187
:100700005A61069B002BD6D1D02380221B061201F2
:100710009A61D5E7C8A50110E0A50110E8A5011070
:10072000F0A50110F8A5011000A6011008A60110FF
:1007300010A601101CA6011028A601104AC0002016
:10074000E80B002020A107002D03001034A60110A3
:10075000F0B54646D6464F460400C0B515000E001B
:10076000002A52D008239846804400237F22414625
:10077000280003F0D9FD3B49404614F0F9FD3A4FFB
:10078000390014F0F5FD3900002014F0F1FD3F218F
:10079000824614F057FD071E3FD0002303708833B4
:1007A0009946082250463149A14414F0ADFD002875
:1007B00054D000232E4F9A46E3519223DB00E05899
:1007C0000CF0FCFA802103002A4A404613F09AF903
:1007D0009123DB00E0505346E351002382B2636073
:1007E0004146300007F048F8214BE258002A05DD69
:1007F00000234946300092B207F03EF830002989C4
:1008000004F0FCF8280003F059FC300005F02EF845
:10081000E0BCBA46B146A846F0BD882399460822F6
:1008200050461249A14414F06FFD0028C1D1D023D5
:100830008021114AC90048461B065B6813F062F923
:100840000E4B0B4A8021A35040460D4A13F05AF933
:1008500091235022DB005020E250BEE7781CFFF7C6
:100860009DFEE4E740A60110D4C2011044A6011089
:100870008C040000B8AA011054A601101104000055
:1008800068AA011070B596B013F014FB0C2101207A
:1008900011F090FC04000CF003FC2100334813F02D
:1008A0005BFB3349334813F01BFE03210E2002F09B
:1008B0001BFB03210F2002F017FB002201210E2059
:1008C00002F02CFB002201210F2002F027FB00F098
:1008D00085FC294B29482500036000F073FC802229
:1008E0000021D200264811F097FCFFF797FDFFF793
:1008F00035FE24492448254A0CF07AFB244B083560
:10090000A360244B6A46290003A8009300F076FBFD
:10091000290001A800F032FC2E2004F0DFFD051EA6
:1009200005D050221C4903F077FF061E02D001209B
:1009300016B070BD0121280003F0E8FF21002060FF
:1009400004F072FB1549206804F080FB1449154837
:1009500013F0E8FB2671FA20800001F00FFD2379E7
:10096000002BF8D00CF0D0FB0020E1E709030010C9
:10097000801A060008050020007F0007E420002000
:10098000F4BB0020F0AA0110FCAA011004004000F2
:10099000C0A80401FFFFFF0084CC0110D5020010A5
:1009A00010AB01101CAB0110F0B5CE46474680B528
:1009B000684C138906001500A544F22B09D82800BD
:1009C00003F07CFB93239B009D44C0BCB946B0461A
:1009D000F0BD892200232800920009A903F0A4FC9D
:1009E000F228ECD924216A460223521813703100F0
:1009F00004220DA811F016FC9A20002345AA4000FD
:100A00000AE0922189005C186C44343CFF3C247855
:100A100002341B198342D2DAD45CD118FF2CCED019
:100A2000352CEED18B78012B00D19BE0032BC6D166
:100A30009A24002364000AE092218900591869442D
:100A40003439FF39097802315B18A342B7DAD15C37
:100A5000D018FF29B3D03229EED1827833789A4268
:100A6000ADD1C27873789A42A9D10279B3789A420B
:100A7000A5D147793C00103CE4B2072C9FD8013443
:100A8000E3009846B0440622404610A914F054FBF7
:100A900000280CD0062240462F4914F04DFB0028B8
:100AA00000D08CE70622404610A911F0BBFB01F0F4
:100AB0000DFE002900D175E2FA220023920010F009
:100AC000A1FF264AE3008218F318120CDA806B4665
:100AD000372224219B18684636221F70F0234018C5
:100AE000FF32C2526846313A40180233FF3AC254CC
:100AF0006B463D3241209B186A46402412186846D6
:100B000000191B78017812786C4606973627E4198D
:100B10002478013F05946C46E4192478013F04943D
:100B20006C46E41924789C466B4603942124103FBC
:100B3000DB191C5D6B4602942024DB191C5D6B469F
:100B4000019443241B191C7805486346009413F054
:100B5000E9FA9CE0B4FDFFFF34C80110005C2605F3
:100B600040AB011008239846B0440622404610A925
:100B700014F0E2FA041E78D0D84F0622390040461D
:100B800014F0DAFA431E9841F389D54A1B041A433C
:100B90009146C40001F09AFD002900D0E2E0FA215C
:100BA000890010F0F1FE4B46181A00D509E2102317
:100BB0009846B0440622404610A914F0BDFA002819
:100BC00000D10CE2082C00D1DFE000241823984665
:100BD000B0440622404610A914F0AEFA002800D115
:100BE000FFE1082C00D1F2E020239846B044062211
:100BF000404610A914F0A0FA002800D1F3E1082C17
:100C000000D106E128239846B0440622404610A9A8
:100C100014F092FA002800D1E7E1082C00D11AE183
:100C200030239846B0440622404610A914F084FAB6
:100C3000002800D1DBE1082C00D12EE138239846B2
:100C4000B0440622404610A914F076FA002800D1DC
:100C5000CFE1082C00D149E13000062210A9403034
:100C600014F06AFA002800D187E037226B4624216D
:100C70009B186846362210341C70F0234018FF324F
:100C8000C2526846343A0233FF3A4118CA54242704
:100C90006946F32336221A200424C919CA54FF30A6
:100CA0000133CC5404223100684411F0BBFA694688
:100CB000F92301222020C919CA54FF300133CC5432
:100CC0000422311D684411F0ADFA6946FF23032266
:100CD0002620C919CA54FF300133CC5404223100F4
:100CE000684411F09FFA0623694606222C20C91990
:100CF000FF33CA54FF300133CC540422310068441E
:100D000011F090FA0C2368463322C019FF33C25405
:100D1000744B68464C938823C1195B00B33ACA529E
:100D2000A0228921704B3620920049005F6803F0B1
:100D300071F8041E00D142E689224068520009A9D8
:100D400011F070FA01235B42B06C0893002F16D0AB
:100D500021000097453308AA08F00AFC200003F0A0
:100D6000ADF92CE6FA220023920010F04BFE1AE7B0
:100D700006220021404611F04FFA072475E744236C
:100D8000210008AA08F018FCE8E7062239004046CE
:100D900014F0D2F9002800D1073CF38A504A1B0412
:100DA0001A43914601F092FC002900D1E1E0FA22B9
:100DB0000023920010F026FE4B46181A00D405E7D7
:100DC00006220021404611F027FA0124FEE6062201
:100DD0003900404614F0B0F9002800D1063CF38BEE
:100DE0003F4A1B041A43914601F070FC002900D1D0
:100DF000C4E0FA220023920010F004FE4B46181AB9
:100E000000D4F1E606220021404611F005FA022442
:100E1000EAE606223900404614F08EF9002800D197
:100E2000053CF38C2E4A1B041A43914601F04EFCFC
:100E3000002900D1A7E0FA220023920010F0E2FD81
:100E40004B46181A00D4DDE606220021404611F078
:100E5000E3F90324D6E606223900404614F06CF983
:100E6000002800D1043CF38D1D4A1B041A4391460F
:100E700001F02CFC002900D18AE0FA220023920024
:100E800010F0C0FD4B46181A00D4C9E60622002116
:100E9000404611F0C1F90424C2E60622390040465A
:100EA00014F04AF9002800D1033CF38E0C4A1B04CD
:100EB0001A43914601F00AFC00296ED0FA22002361
:100EC000920010F09FFD4B46181A00D4B6E6062299
:100ED0000021404611F0A0F90524AFE634C8011006
:100EE000FFFF00000400015100210020062239000C
:100EF000404614F021F9002800D1023CF38F3E4A0D
:100F00001B041A43914601F0E1FB00294FD0FA225D
:100F10000023920010F076FD4B46181A58D4402357
:100F20009846B0440622404610A914F005F900285E
:100F300000D122E7082C5CD106223900404614F08B
:100F4000FBF8002800D1013C4623F35A2A4F1B042A
:100F50001F4301F0BBFB00292ED0FA220023920090
:100F600010F050FD3F1A00D502E7082C00D126E50D
:100F700003E7FA21890010F007FD1DE7FA21890037
:100F800010F002FD3AE7FA21890010F0FDFC57E766
:100F9000FA21890010F0F8FC74E7FA21890010F0BA
:100FA000F3FC90E7FA21890010F0EEFC89E5FA21C4
:100FB000890010F0E9FCAFE7FA21890010F0E4FCA9
:100FC000D0E706220021404611F026F90024EEE584
:100FD00006220021404611F01FF906243CE60124B8
:100FE00043E6022441E603243FE604243DE60524CB
:100FF0003BE6062439E6C046FFFF00000B6810B54B
:10100000036013680400436040220021083011F09F
:1010100003F908F05FFBA064002808D0220004490F
:1010200008F034FB43220349A06C08F083F910BD9B
:10103000A909001084CC0110F0B54F464646D646AB
:1010400015009622C0B5CCB0984654AB1B8801AEB3
:1010500007009946310000232800520003F064F98C
:1010600004000B2808D8280003F028F84CB0E0BC96
:10107000BA46B146A846F0BD708802F075F88246BF
:10108000B08802F071F853465246DB0BD20A134384
:101090009BB2002BE7D10028E5D0331904AA140035
:1010A000934206D80CE03F29DDD801316418A342F1
:1010B00003D921780029F6D10134A21AFF2AD2DC03
:1010C000C0232371B43B637100239A46A37101339B
:1010D000E371637253463C336373534652462000B8
:1010E0000433E373391D2272A272E2722273A27377
:1010F00010301A0011F096F81C4802F035F8708094
:10110000012002F031F8B080012002F02DF85346A2
:10111000039380231434F080A41B5B029C4200D311
:10112000134CA0223620A1B2920002F073FE824638
:10113000002816D022003100406811F073F84B46A9
:1011400042465146386808F037FA0400504602F02B
:10115000B5FF002C00D186E72100064812F0E2FF1F
:1011600081E7054812F05AFF7DE7C0468084000001
:10117000FFFF0000B8AB01108CAB011030B583B09D
:1011800004000D0008F0A6FA206000280ED022000E
:101190000A4908F07BFA00233522206801A901934F
:1011A00008F0C8F8021E03D12B68636003B030BD9D
:1011B0003521034812F0B6FFF8E7C0463910001099
:1011C000D8AB0110037842788178D21AC378013203
:1011D0005B1A0133534343607047C046F0B547463E
:1011E000CE4680B58BB003AC2200104B802723CBBA
:1011F00023C223CB23C21B880026138026236B44E3
:1012000099460B4B02AD984623782F706B702A00DD
:1012100002233C2140460096013413F089F94C45E5
:10122000F2D10BB0C0BCB946B046F0BD68C90110E0
:1012300008050020F0B557464E464546DE462123B8
:10124000E0B587B004AC23700B78834663704B78AD
:101250008A46A3702223E3704B880027A3801623BD
:101260006B44994680239846174E03AD4246237837
:101270002A706B702A0002233C2130000097013451
:1012800013F056F94C45F1D153465B685D1C2800BC
:10129000984610F07DFF40230400424659460370F3
:1012A000013010F0BFFF2B0022003C2130000097DE
:1012B00013F03EF9200010F0A3FF07B0F0BCBB46CE
:1012C000B246A946A046F0BD0805002070B57829B1
:1012D00024DC382A22DC0724D5172C40A418154A10
:1012E0001D00D65C0322E4103240022A02D1203BCA
:1012F0001D00DBB21A00413A192A10D9303B0022F6
:10130000092B03D8FF322A40153AD200E4016118B4
:10131000401809495118082210F084FF70BDE401FB
:101320006118403D40180449EA005118082210F0A5
:1013300079FFF3E7A944051040C8011010B507F084
:10134000F9FD10BDF8B501230B72040007F026FE6D
:101350000500431C0BD10F4B186859680E4B2268CF
:101360009860D9601900200052699047F8BD01F0DB
:10137000ADF9FA2206000F00002328000021920098
:1013800010F0B8FE801979410029E7DA01200349FD
:101390004042E3E788C9011008040020FFFFFF7FF7
:1013A00070B5094D04002B78002B08D001230749A4
:1013B00020000B722368DB699847012070BD01F0A3
:1013C000C1FE01232B70F1E74FC000202004002054
:1013D00010B50400036804499B69984723682000FE
:1013E00002491B6A984710BD080400202004002011
:1013F000002070477047C04610B501F067F900291A
:1014000005D0FA220023920010F0FCFA10BDFA2158
:10141000890010F0B9FAF9E78368002B04D107E0DE
:101420001A68002A06D013008B42F9D1002005E08B
:10143000030008331960002301200B607047C04689
:10144000020083680832002B04D109E01A001B68EF
:10145000002B05D08B42F9D11B680120136000E0FE
:10146000002070474368002B04D107E01A68002A67
:1014700005D013008B42F9D1002004E0031D196050
:10148000002301200B6070474368021D002B04D12C
:1014900009E01A001B68002B05D08B42F9D11B68AC
:1014A0000120136000E000207047C046F0B55746A9
:1014B000DE464646C0B53E4B82B01A685B68009275
:1014C000019383688246002B2CD0082353449B460B
:1014D00001F0FCF853469B6804000D005F46002BAA
:1014E00020D000221E0094469846B268F36820007F
:1014F0002900801A9941002902DB14001D00BC4616
:1015000037003668002EF0D162464346002A48D0A4
:10151000116850460B6813604B68984753469B68A8
:10152000002BD5D153465C68002C29D000255646A7
:10153000237A002B31D02100636825723000984750
:101540002468002CF4D1B168B246002918D0009C60
:10155000019D0E0003E004000D00002E0ED03300AC
:1015600022009868D9682B00121A8B413668002B2C
:10157000F1DCF2D1002AEED1002EF0D100940195D9
:10158000009B019C5246180021001361546102B077
:10159000E0BCBB46B246A846F0BD2468002CC7D1CB
:1015A000D1E7190053465C68002CBFD1CFE7C04695
:1015B00088C901100FB400B5084883B012F02EFDA1
:1015C000049B002B07D005A91800019112F0E0FA46
:1015D000034812F023FD012012F0F2FAFCAB0110D7
:1015E00094C4011070B50F4C0F4D104A24184D4192
:1015F000A900A00F0843A90F69400D4B604010F0EF
:1016000079FD4A01C30E1343CA0E58405140094B9D
:10161000094A10F06FFD4A00C30F1343CA0F584028
:10162000514070BD157C4A7FB979379EB9E5E41CFD
:101630006D4758BFBB49D094EB113113F0B5046826
:101640004568060023002A00C6468068F168034307
:101650000A4300B5134304D101F038F803000B43EB
:10166000FAD023062A0A60402F061A43230A3B4376
:10167000070CBC4669404B40984663460F041F4325
:10168000424003045A4043467B4032607360C20EBE
:101690004B011343C90E40010843B360A10FAB00D7
:1016A0000B43A20012196B41F060D101580E520E8B
:1016B000DB0108431A4304001500430FD10019430E
:1016C000C0000019694180BCB846F0BDF0B5DE46E7
:1016D00057464E464546E0B5AD4C97B00594247844
:1016E000002C00D1D5E00EAB0D93AA4BAA4F02936C
:1016F000AA4BAB4D9B465B461E685C689B680B9390
:101700005B46DB680C93A74B05931B78DBB2069313
:1017100000F0DCFFFFF766FFA34B70409B69614060
:1017200008900A91DB0433D5A04BDA6BE023134019
:10173000402B2DD0EFF3058399469D4B3E6898468C
:1017400000239A462B004D467C68994630002100C4
:10175000002D1AD000F0F8FFEFF3108272B6434666
:101760001B68002BFBD0BFF35F8F3B68B34212D0E6
:10177000BFF35F8F43465146196082F310883E687D
:101780007C6830002100002DE4D100F08FFDE3E7FC
:101790000FF0EEFFCEE77B68A342E9D1824B140045
:1017A000DE6900F093FF0A220023801859414D465C
:1017B00002000B1E02DA01227E4B52420CC72A683D
:1017C0006B68100019000127801859413740074302
:1017D0000022009001912F606960BFF35F8F744B0E
:1017E0001A6084F310887449029B8C461B787349F5
:1017F000DB0063449868884249D00021FFF7F2FE7D
:10180000089D0A9C45404C40EFF3108672B6684A2A
:101810001368002BFCD038000199FFF7E3FE0B9B07
:1018200058400C9B5940BFF35F8F059B069A1B786D
:10183000934208D05B460CCB5C405B4655409A68AF
:10184000DB68504059405F460D9B0E955C60986088
:10185000D9601800FFF7F2FE109A119B0E9C0F9DA5
:10186000BA60FB60059A3C607D6013780133DBB29F
:101870001370BFF35F8F00224D4B1A6086F3108800
:1018800017B0F0BCBB46B246A946A046F0BD9A6070
:10189000B3E74B4B009001919C464A4B4A4C98460B
:1018A000A14665682468A10DAB02A2020B4310009B
:1018B0001900001969410290039102990027890ECD
:1018C0008A4603998901019151460198084302997A
:1018D00001908901009100980199001BA9410D0018
:1018E0006146040040C98C46A4197D414145DAD1C6
:1018F0004B461C605D600EAB1800069407950D9377
:1019000000F02EF90E9B0F9C08930994264B9B69BF
:10191000DB0400D4FAE0254BDA6BE0231340402BC4
:1019200000D1F3E0EFF305839A46402300249B4661
:101930000023009301941E4B5C469846164F0023EB
:10194000994653463D687E68A24628001C00310037
:10195000002C1AD000F0F8FEEFF3108272B6434666
:101960001B68002BFBD0BFF35F8F3B68AB422DD0D1
:10197000BFF35F8F43464946196082F310883D6884
:101980007E6828003100002CE4D100F08FFCE3E7F2
:1019900057C000204CC00020A80D0020D00000201F
:1019A000C00000204DC00020000006400080004024
:1019B000300100D0FFFFFF7F00000340FFFFFF006A
:1019C000001C042000200420C80000207B68B342D3
:1019D000CED12300160054469A46009A019B10006F
:1019E000190080185941504BDA6901231340034311
:1019F0000093019100F06AFE0A22002380185941E9
:101A000002000B1E02DA0122484B52423A607B6010
:101A1000012C66D1464DA346009B019C2B606C6057
:101A2000BFF35F8F0023434C236086F3108800F0E0
:101A30004DFE80468946EFF3108672B62368002B70
:101A4000FCD0BFF35F8F059B1B78002B52D13A4B24
:101A5000DA681F2A5DD05A691F2A5CD0DA691F2A0A
:101A60005FD05B6A1F2B59D00FF082FEFF23FF224D
:101A70003249DB000A70324A02919446009801997B
:101A8000052263445A60FFF7ADFD82460C000698BC
:101A90000799FFF7A7FD53466140584012901391F4
:101AA00040464946FFF79EFD80460C00089809997C
:101AB000FFF798FD434658406140149012A81591D5
:101AC000FFF7BCFD149815991E4B9B46129A139B69
:101AD0005C46226063600123059AA060E160137098
:101AE0000CE0BFF35F8F00234246136086F310883B
:101AF000013C24E7114B0293124B9B46BFF35F8FCF
:101B000000220C4B1A6086F31088F4E50FF030FECB
:101B100008E700239B465B46DAB2A9E71C3B9B46DD
:101B2000F9E702239B46F6E700000640FFFFFF7F30
:101B3000C0000020300100D0000003404CC0002055
:101B400008000340D000002010B5FFF7BFFD10BD16
:101B500010B5024800F00CF810BDC046E0BA0020F5
:101B600010B50822014910F05DFB10BDE0BA00205D
:101B700010B588B004000D220021684610F04CFB1F
:101B80000D22002104A810F047FB4B236A4668464B
:101B9000137004A90D2218F0A7FC152108222000BB
:101BA000694410F03FFB08B010BDC046EFF3108051
:101BB00072B6034A1368002BFCD0BFF35F8F7047E7
:101BC0002C0100D0BFF35F8F0022024B1A6080F31C
:101BD000108870472C0100D070B5EFF3108C72B6EE
:101BE0000D4D2B68002BFCD0BFF35F8F0724CB0873
:101BF000C618C05C01230C40A3401C0004400342F3
:101C000007D118433070BFF35F8F2C608CF31088BE
:101C100070BD1000FFF7CEFC2C0100D0F8B5474690
:101C2000CE46884680B5EFF3108C72B61C4D2C68FA
:101C3000002CFCD0BFF35F8F9A4222D807210126E7
:101C4000894602E00132934218D34D4637001540D1
:101C5000AF40D4080119045D2742F3D110003C4382
:101C60000C70BFF35F8F00220D4B1A608CF310884D
:101C700000280EDBC0BCB946B046F8BD012040428A
:101C8000EFE7BFF35F8F00232B608CF310880120F8
:101C900040424346002BEDD00898FFF78BFCC0462E
:101CA0002C0100D030B5EFF3108C72B60A4C2368CB
:101CB000002BFCD0BFF35F8F072301220B409A401B
:101CC000CD08435D93434355BFF35F8F00232360EB
:101CD0008CF3108830BDC0462C0100D0044A107827
:101CE000431CDBB2172B00D9102313707047C0467A
:101CF000300400200021044B044ABFF35F8F02C36D
:101D00009342FAD17047C046000100D0800100D054
:101D1000002310B50100988A1B8B984710BDC04660
:101D2000162310B50100188802331B88984710BD90
:101D3000F8B54746CE4680B50F1E18D014239946F5
:101D4000043304000025012698464B461888434674
:101D500021681B88984701C4431E984101350640FD
:101D6000AF42F2D13000C0BCB946B046F8BD012642
:101D7000F8E7C0460A4B1968EFF3108072B60A689C
:101D8000002AFCD0BFF35F8F1B68BFF35F8F002278
:101D90001A6080F3108840BF002000217047C046C1
:101DA000F0BB0020F0B5DE4657464E464546E0B54E
:101DB00087B0EFF30583032201251A409540910077
:101DC0008846A946B34B03925C58B34B1D60B34B96
:101DD00004934B46B24843630823E55E002D37DA8F
:101DE000A3881BB2002B00DBADE0A379002B00D051
:101DF000EEE00823E05E002820DB430062691B1848
:101E0000DB00D3189E68DD68731C00D111E1A44883
:101E100001004144826A0B69B71A9B1A9F4215D38D
:101E20000123026A039883401A420FD09C4800F0B5
:101E300045FC8D4202DCCCD18642CAD940BF07B0F6
:101E4000F0BCBB46B246A946A046F0BD0E61EDE728
:101E500062696B0092465B19DB009A4453469E68A8
:101E6000DF6800F02BFC8F42BADC00D103E1002FC9
:101E700000DAE8E05246534652691B699346049AD9
:101E8000934200D1D9E052460821605E5288000496
:101E9000594610439847009001910099019A0B0010
:101EA0001000134300D1CEE013000A00B61A9F4180
:101EB000002806DB7A4800F001FC009E019F3618DE
:101EC0004F4153469E60DF6000229A5E002A00DA8E
:101ED00086E7530099186069C900411802938B681E
:101EE000C9689B46B94200DD7AE702D1B34200D906
:101EF00076E708239C46A444059565462281A446BE
:101F0000029B2C0006E053009918C90041188D6807
:101F1000C968AB469B18DB00C318B94206DC00D188
:101F2000B3E01C000023E25E002AECDA23006446E2
:101F30009C4653461A806346059D1D80A3881BB2AC
:101F4000002B00DA51E72269EFF3108172B61368B3
:101F5000002BFCD0BFF35F8F0123A7885B42A380D7
:101F60003FB22369BFF35F8F00221A6081F31088AC
:101F7000002F00DA39E72300083322009A46666909
:101F80007B00DB19DB00F318996850468C46082467
:101F9000115FDD68002910DB029306E0AB4244D0FC
:101FA0000023E15E2000002906DB4C006418E400F9
:101FB0003419E368AB42F1DD029B078000201F5E0D
:101FC0001980002FDCDA1400A379002B00D110E770
:101FD0000023A37126000823E15E08364B1C00D1C4
:101FE0002CE70800A246656902E03E004B1C1AD0AF
:101FF0004B005B18DB00EF180A008C46E95E7B881B
:102000001BB2002BF1DA01235B42DC17BB60FC60E2
:10201000824205D0534631801B893B8053461A814A
:1020200060464B1CE4D15446E5E6A3686345B7D946
:10203000C2E76B1C00D0EAE6F8E65B4658461B692F
:10204000984700281BD153461B8822692381EFF350
:10205000108372B611680029FCD0BFF35F8F514620
:1020600062880A8022696580BFF35F8F002111605A
:1020700083F31088B4E6864200D8F8E6B0E65B4603
:102080001A685B680092019307E7B34500D848E7F8
:102090004CE7C046BCBA00203C700540A51D0010AE
:1020A0000040054070B52E4C2569002D04D00A2152
:1020B0002C4800F0F5FD70BD2B4E0321300000F0E0
:1020C000F3FAE660FFF70AFE284B03229C46D02372
:1020D00022701B061B6801216370254B6044A360BE
:1020E0000F23800020610220638063694942A18040
:1020F00019800231198647311D83585218315A52BE
:1021000075325C39995218320131995218320131C5
:102110009952183201319952083518329D520231C4
:1021200018329952183201319952183201319952AC
:102130001832013199521832013199521832013155
:1021400099520C4B0C49DC600130356200F030FBD9
:102150000121032000F01AFB084B1D60A7E7C046D1
:1021600034040020F0BB0020004005404000003453
:10217000FFFF1000BCBA0020A51D0010386005400C
:10218000004870473404002070B501000469EFF383
:10219000108C72B620680028FCD0BFF35F8F02203D
:1021A0000D5E4C6968004019C00024180869002DB4
:1021B00036DB26884E80BFF35F8F002606608CF3E7
:1021C0001088E36063880498013320615B040598FC
:1021D0005B0CA26060611A1C002B1FD093B2280414
:1021E000628018430A69EFF3108C72B61368002BF3
:1021F000FCD0BFF35F8F8B8823808D800B69BFF38A
:102200005F8F00221A608CF310880B7801329A409D
:10221000CB6808498C4663441A6070BD0122DDE733
:10222000BFF35F8F002303608CF3108801204042CE
:10223000F3E7C0463C20000010B543890A149342DE
:102240001ADD53009B184269DB00D3180469EFF3D1
:10225000108C72B62268002AFCD0BFF35F8F5A88B8
:10226000090494B2090C8A4208D00369BFF35F8F56
:1022700000221A608CF31088002010BD8022120208
:1022800014435C80012302698371BFF35F8F0021D7
:1022900011608CF31088044902788C469340C26820
:1022A000012062441360E8E73C200000F0B506001E
:1022B0000F0006246442E517C646A4197D4100B507
:1022C00082B08D4214D811D000F000FA22002B0009
:1022D000121A8B41002B15DC002B44D03000390042
:1022E00000F032FA02B080BCB846F0BD8442EBD9AF
:1022F0000024002500F0EAF922002B00121A8B417D
:10230000002BE9DD00F0E2F922002B00121A8B41CC
:10231000002B0ADB00230193144B22000093144886
:102320002B00FFF731FF0130D8D0A0462900002450
:10233000104A1148536A994204D8956A4545CDD24E
:102340009942CBD10568EFF3108C72B62B68002B45
:10235000FCD0BFF35F8F0368BFF35F8F1C608CF30B
:10236000108820BFE6E7002AB8D0CBE7751D001023
:102370003404002000400540F0BB0020F0B5C64604
:1023800000B582B0040000F0A1F9FA2206000F00A7
:1023900020000023002192000FF0ACFE801979414B
:1023A00004000D1E02DA01242E4D644206267642F8
:1023B000F71736196F41AF4214D811D000F086F9E3
:1023C00032003B00121A8B41002B15DC002B46D04B
:1023D0002000290000F0B8F902B080BCB846F0BD7A
:1023E000A642EBD90026002700F070F932003B002E
:1023F000121A8B41002BE9DD00F068F932003B0036
:10240000121A8B41002B0ADB00230193164B32007A
:10241000009316483B00FFF7B7FE0130D8D00023E9
:102420003900B0469C46124A1248536A994204D871
:10243000966A4645CCD29942CAD10668EFF3108716
:1024400072B63368002BFCD0BFF35F8F0368BFF315
:102450005F8F66461E6087F3108820BFE5E7002A7D
:10246000B6D0C9E7FFFFFF7F751D001034040020C0
:1024700000400540F0BB0020F0B557464E46DE4612
:102480004546E0B506000F0085B0EFF30583994699
:102490008B46002B12D0384900204B6ABB4206D332
:1024A0008A6ADB1B591E8B41B2424041184305B07A
:1024B000F0BCBB46B246A946A046F0BD2F4B9A469B
:1024C000DB68984653461B784046039300F0F6F8C5
:1024D0004246039B040004339B009B580D001B1ACB
:1024E00039003000001BA941894510DC0DD020BF08
:1024F000214A0020536A5B45D9D3926ADB1B591EDF
:102500008B41B24240411843D1E78342EFD900F0FA
:10251000DDF832003B00121A8B41002B1ADB00233E
:102520000193174B3200009350463B00FFF72CFEFF
:10253000011E0FDD104B5A6A5A451BD39B6AB342EA
:1025400016D35046FFF778FE0B4A0020536A5B45CE
:10255000ADD3D2E7084A0020536A5B45A7D30020D9
:10256000926ADB1BB24240415A1E934118439EE7D8
:102570005A45E6D120BFE4E700400540340400207E
:10258000751D0010F0B5CE464746110080B583B0EA
:1025900004009C460C9D194300D16CE06146DB179A
:1025A0000193009353401E00019B4B401F00009875
:1025B0000199361A8F4163460A996B600B9BAC6098
:1025C00029612A606B6100F081F880197941002946
:1025D00002DA0120314940422269EFF3108972B6D4
:1025E0001368002BFCD0BFF35F8F0223E65E6369A4
:1025F00072009219D2009B1822699046002E42DB8D
:102600001A886280BFF35F8F002247463A6089F3E1
:102610001088234A9860D9601A615A885D61013236
:102620005204520C111C002A2BD088B232040243EF
:1026300059802069EFF3108772B601680029FCD039
:10264000BFF35F8FA1881980A6802369BFF35F8FD6
:102650000021196087F310881248237884460131DD
:1026600099400120E36863441960EA6003B0C0BC8C
:10267000B946B046F0BD00230126002701229C4642
:1026800099E70121D1E7BFF35F8F0023136089F33E
:102690001088012200205242E7E7C046FFFFFF7F7B
:1026A000A51D00103C20000010B5024A0248FFF7AB
:1026B00093FA10BD0CAC0110381200200300416ADF
:1026C0000A00986A596A8A42FAD17047034B596ADC
:1026D0000A00986A596A9142FAD170470040054051
:1026E00070B504000D00174A536A1900966A536AC0
:1026F0008B42FAD13000190024184D41AB4216D854
:1027000013D0104B2A005B6A9D4203D90D494B6AD6
:102710009342FCD3934207D10A4A02E0516A99429C
:1027200002D1916AA142F9D370BDA642E9D9054B05
:102730005B6A1C005A1CEFD0012201246442E51799
:102740005242E3E700400540064A536A9942FCD8EA
:1027500007D1044B02E05A6A914202D19A6A904230
:10276000F9D8704700400540054B064A1360064AF9
:10277000136053609360D36013615361936170473A
:102780008080808000E400E004E400E01F23184023
:102790001E3B8340002905D0C021044A4900535004
:1027A00013607047802201498B50FAE700E100E096
:1027B00070B50D00EFF3108672B60F4A1368002B48
:1027C000FCD0BFF35F8F0D4B10309B6884001B590A
:1027D0000B4A934203D09D4201D00EF0C9FF074B34
:1027E0009B681D51BFF35F8FBFF35F8F0022024BC9
:1027F0001A6086F3108870BD240100D000ED00E05F
:10280000CD010010F0B557464E46DE464546E0B5D0
:1028100085B0060000911700EFF3108B72B66A4A7C
:102820001368002BFCD0BFF35F8F0025674B5D570B
:102830009A46002D00DAA9E06B00654C01935B1904
:102840009B009846A146C1444B4652469B791036A0
:102850001370604BB6009B6899590B1B2F2B33D913
:102860005D4B994200D0ACE0019B42469C465B4BDD
:102870006544AD0063535A4B0232A218043B9B1AC5
:102880001B05584A5B0D651913436B80564B01219C
:10289000AB80FF23AB71009BEF71AB604B460B43EA
:1028A00019004C4B9B689951BFF35F8FBFF35F8F4B
:1028B0000022454B1A608BF3108805B0F0BCBB4674
:1028C000B246A946A046F0BD01200A008243D37952
:1028D0008C46BB4231D84546130044491B1B5B4123
:1028E0005943090D3D4B63533D4B02356519043B7C
:1028F0005B1B1B053B4D5B0D2B43AA464D466B8076
:102900000425AC465546E044131F44441B1B1B05DD
:102910005B0D1D434B46997100999D809960494616
:10292000DF71334B01431360BBE75800C0188000D0
:102930002018C179B9422FD902000623D356002BA3
:10294000F3DA02932B4B61460393131D9A4604233B
:102950005B429C46E14450464B461B1A1B055B0DEF
:102960009C46204B957198466346404603439380AE
:10297000019B5A199200039BA418A380029B1C4A36
:10298000A371009B2260E771A3608AE70EF0F0FE5E
:10299000002553465D574FE7908802934005131D6D
:1029A0009A46031561469C464046D444634604302B
:1029B0002018181AE0230005400D1B02184303904D
:1029C000C5E70EF0D5FE4FE7240100D053C000202C
:1029D0004C04002000ED00E0CD01001000A1FFFF3D
:1029E0007C04002000E0FFFF01BDFFFFAAAA000059
:1029F0000148804701BD0000F0B5DE4657464E460F
:102A00004546E0B50C0083B0EFF3108872B6634A18
:102A10001368002BFCD0BFF35F8F614B61499A684C
:102A2000030010339F00D55901938D4243D0A54236
:102A300054D05D4EAA1B2F2A3DD85C4B9B461B6889
:102A4000994601231A009C4682404B4613401F22A0
:102A500099466346024093409A4680225B46504620
:102A60009850BFF35F8FEFF305839B46002B37D061
:102A7000019B5B4501D00EF07BFE01232A009A43A7
:102A80009068844208D176E04B005B189B00F318F5
:102A90009868844236D01A00062151560029F3DA8C
:102AA000844254D04B46002B27D0C02251463F4B86
:102AB0005200995019603A4B9B68DD51BFF35F8F0C
:102AC000BFF35F8F0022354B1A6088F3108803B084
:102AD000F0BCBB46B246A946A046F0BD0D00EAE7F1
:102AE0002A0063469A4390688442D5D10620105646
:102AF000130000280ADA0D0031E0802351462B4AEA
:102B0000D150D8E706201856002821DB42001118C2
:102B1000890074188B46A1689960E179D971062102
:102B200061569971002924DBA488F11A64052415E3
:102B30005C44091909051E4C490D2143998013185D
:102B40001C4A9B001178F31899711070AAE71300C2
:102B50005946002914D1FF319171174991801549C7
:102B60000A789A71154A9B1B5B415A43120D0A70F1
:102B700098E71149E2E70620105613000028C5DA4D
:102B80000F4A1049D21A083A5002400D0143998069
:102B90000D4952080A43DA8084E7C046240100D078
:102BA00000ED00E0CD0100104C04002000E100E049
:102BB00000E0FFFF53C0002001BDFFFFAAAA0000F4
:102BC0008604002000F0FFFF00F8FFFF70B501242D
:102BD0000443EFF30581EFF3108C72B6214A1368BA
:102BE000002BFCD0BFF35F8F1F4B05001F4AED1A6F
:102BF0006D416A43120D1E4D8900AE6852B276587F
:102C0000A6421CD00621595691421CD01221595679
:102C1000914222D01E215956914220D02A21595644
:102C20000324914210D0134B19781A708171BFF3AD
:102C30005F8F00220B4B1A608CF3108870BDAB685D
:102C40000D4C5C50EFE700246100091989005B1806
:102C5000FF21997109499980E5E70124F4E70224ED
:102C6000F2E7C046240100D04C040020AAAA0000CC
:102C700000ED00E053C00020CD01001001BDFFFFBA
:102C800070B504000E001500FFF728F801002000C1
:102C900000F006F8A680E580BFF35F8F70BDC046E8
:102CA000024B9C466144890001607047400000343B
:102CB00070B5114C114DAC420FD2FF262368002B8A
:102CC0000CD0FFF70BF801002000FFF7E9FFA6800A
:102CD000BFF35F8F0834AC42F0D370BDFEF7FEFF48
:102CE00001002000FFF7DCFF2671BFF35F8F08347F
:102CF000AC42E3D3F1E7C046DC0B0020E40B00203C
:102D0000F8B5DE464E4657464546E0B58B460500CB
:102D10000A99180016000EF037FE0A9B6C001F027D
:102D2000324B64199C46A4006444636881469F4208
:102D300000D967602B1FDBB29846012B30D9C02326
:102D400080229B01E31812011A60294BAD005959EA
:102D50009A4600291BD17301E026226853401E4089
:102D6000802342465B01E3181E60012A30D980238C
:102D700080229B01E31812011A6053464A4667609D
:102D80005A51F0BCBB46B246A946A046F8BD5869A8
:102D90000EF0FAFD013043001B18033BFDD2DAE7C9
:102DA0005B46012BCBD1C02303229B01E3181A60A1
:102DB000023AA3681A42FCD07301E0262268AD00F3
:102DC00053401E4080230A4A5B019246E3181E606E
:102DD0005A462168514003220A401A6001225B468C
:102DE0009A40A3681A42FCD0C1E7C0460080004068
:102DF00040120020F0B546464F46D646C0B51F00EB
:102E0000344B44009C462418A400644463688846FC
:102E10001600FF2B02D880235B006360031FDBB228
:102E20009A46012B30D9C02380229B01E31812015E
:102E30001A60294B85005959994600291BD1730105
:102E4000E026226853401E40802352465B01E3186F
:102E50001E60012A30D9802380229B01E3181201D1
:102E60001A6080235B0063604B465F51E0BCBA464A
:102E7000B146A846F0BD58690EF086FD013043000A
:102E80001B18033BFDD2DAE74346012BCBD1C0230D
:102E900003229B01E3181A60023AA3681A42FCD08D
:102EA0007301E0262268850053401E4080230A4AB1
:102EB0005B019146E3181E6042462168514003229F
:102EC0000A401A60012342469340A2681342FCD094
:102ED000C1E7C0460080004040120020014B800046
:102EE000C058704740120020094A83009A1810B554
:102EF00014684022544080322240064CC000A44650
:102F000063441A60044B9C466044416010BDC04657
:102F100004C0014004D0014000400140074B800044
:102F2000C3181B68C90092000A435A400C2313407F
:102F3000034A9446604403607047C04604C00140A1
:102F400004D001408000002905D0064B9C46022396
:102F5000604403607047044B9C4602236044036056
:102F6000F8E7C04604E0014004F00140D0231B060E
:102F70001B6830B50500584243412F205B42834314
:102F80000E48EC088446072028408000814020003D
:102F90000B4D3C3063448000A40041511B19002AB2
:102FA00005D08022920194466344196030BDC0224E
:102FB0009201944663441960F8E7C04630410140ED
:102FC00000400140D023F0B5C6461B0698461B685A
:102FD0000C4F9B001600FA5804000D0000B510427B
:102FE00009D1290014430D203200FC50FFF70AFCE0
:102FF00080BCB846F0BD0EF0BBFB43461B689B008F
:10300000FA58EEE7CCBA002010B504000D20FFF707
:10301000F3FCD0231B061B6802499B005A58A243AD
:103020005A5010BDCCBA00200123D0228340120692
:1030300093629361094A83009A18116840225140B3
:1030400080320A400649C0008C4663441A60054B32
:103050009C460523604443607047C04604C001405D
:1030600004D0014000400140F8B5040021481E0092
:1030700017000D000EF088FC010038000EF084FCF3
:10308000069B36041B031E432368002B20DB1A4BD0
:103090001A49E3185A1E93418022920194465B42DA
:1030A0001B0B174A1B0363441360164A13601F006F
:1030B0000A689743FBD1144B2560E2182123A060D6
:1030C00013602368002BFCDA0823E6601360F8BD68
:1030D0003F2322681340AB42D9D1A3681B051B0DC7
:1030E0008342D4D1EE22E368D2021340B342CED160
:1030F000EDE7C046001BB7000040FDBF08C0004020
:1031000000E0004000F00040043000008023024A4C
:103110009B000B43D362704700800540AA23064AF8
:103120001B0113608D235B00D3600449044B1960BD
:103130005368002BFCDA70470040024000B0FA00F0
:103140000060024010B501F0BBFA00F05DFB00F03A
:103150008BFB00F037FC05F035FF01F03FFB00F082
:1031600085F905F0A1FE10BD40BA80B27047C04697
:1031700000BA7047F0B5C646584D04002B68884623
:1031800000B5002B03D02A7A824200D179E0544E58
:103190002701EB68002B02D02A7DA24267D0AB69E1
:1031A000002B03D02022AA5CA24256D06B6A002BCF
:1031B00003D02C22AA5CA24229D03B191B01F31890
:1031C000DB7B002C32D0B27A022A65D0012C32D0BF
:1031D0008D225200B25C022A62D0022C2FD0414ACA
:1031E000B25C022A00D16EE0032B0DD83E4D9B004D
:1031F000585906F051FA00223F193F01F719FB7B9D
:103200009B005A510423FB7380BCB846F0BD3819AB
:10321000000110304146AA6A3018984700236B62BB
:103220003B191B01F318DB7B002CCCD18D22520003
:10323000B25C022A4CD02B4AB25C022A3ED02B4A06
:10324000B25C022AD0D12A4AB25C9A42CCD1042282
:103250003B191B01F318DA73D6E738190001103057
:103260004146EA69301898470023AB619EE7381958
:103270000001103041462A69301898470023EB605E
:103280008DE707013818164E000110306A683018B3
:10329000984700232B607CE7F27B9A4296D1D6E7D1
:1032A0002022FF32B25C9A42D1D0022CC7D00D4A04
:1032B000B25C022A07D0032CC1D195E70D4AB25C5B
:1032C0009A42BCD1C3E70B4AB25C9A42F3D1BEE743
:1032D0002022FF32B25C9A42E9D1B8E7601C00209C
:1032E000981C00202A020000501C00203A03000015
:1032F0003F0300002F020000564BF0B54546DE4666
:10330000574698464E460301E0B59B461D18434676
:103310002D015C19E37A070089B0012B00D996E0F2
:103320004D4A9B00D6580192002E00D185E0103501
:103330004544280012F0F4FAA022123081B2920023
:10334000362000F067FD8146002869D005AE0C22CA
:10335000002130000EF060FF2089FFF705FF0123F8
:103360003080B3703100FF330C224846B38001F047
:1033700013F83A4B0C269A464346013D02970393B5
:103380006A786F1C3B0000242E2A07D15AE05A7835
:103390000134E4B2591C2E2A49D00B00002AF6D180
:1033A000DA1B92B290461D002200B218524534DC5E
:1033B00022003100484601F0A3F8731C9BB2A41907
:1033C00042463900484601F023F8A4B22B78661C27
:1033D000B6B2002BD4D1039B002231004846984658
:1033E000029F01F08DF81E4B02340422049304A9BD
:1033F000A3B2484601F00CF83B0001995B448C46AF
:103400001B014344DA7ADB7B16499B009200585833
:1034100062443523494606F0CFF8484600F04EFE98
:1034200009B0F0BCBB46B246A946A046F0BD5B1B46
:103430009BB2984622000D00B7E70021FFF79AFEE5
:10344000A672EDE700233D0000229846ADE706484E
:10345000FEF7B0F8981C0020901C0020FEFF000032
:1034600000010001501C002030AC01107047C04624
:10347000012800D97047054B8000002902D00A6856
:10348000C250F7E7024A1268C250F3E7901C0020CE
:1034900084CC0110F8B54746CE46454E454B80B525
:1034A0008D273400002598467F00A37A022B32D066
:1034B00029D8002B1DD0404B9946FEF745FBB37A27
:1034C00080B2022B3FD0F35D022B42D04346F35C27
:1034D000022B47D04B46F35C022B4CD00223012237
:1034E000A37200232081E372280022736373FFF725
:1034F00003FF01351134EDB2FF34042DD5D1C0BC2A
:10350000B946B046F8BD032B4ED12368002B13D12A
:103510000023A372EDE7237B013BDBB22373002B77
:10352000E7D1637B0133DBB26373042B29D02373B0
:103530002800FFF7E1FEDCE7013B2360002BD8D138
:103540000023A372D5E733898342B6D0F35D022B03
:10355000BCD11733FF33F35A8342AED04346F35CFA
:10356000022BB7D18A239B00F35A8342A5D04B4646
:10357000F35C022BB2D1CE239B00F35A8342ADD130
:103580009BE7E37A002B08D10C4A5268002A04D04A
:1035900001226373E2722273CAE700212800FFF759
:1035A000E9FD0023A372A4E70548FEF703F8C0462F
:1035B000981C00202A0200003A030000901C002002
:1035C00048AC01100123F0B51E000025064018424A
:1035D00005D0002951DD057801392D020130032283
:1035E0001300034010424FD1072963DD08225242E5
:1035F00094468C4467460F32974302000400083219
:10360000BF1822689A189A429B415B42D21863689D
:103610000834D3189342924152429B18BC42F0D1D5
:10362000CA086146013AD2008018891A1A04083083
:10363000120C1B0C9B18012910DD02889B18032912
:1036400005DD42889B18052901DD82889B184A0800
:10365000013A520002398018891A0230012919D022
:10366000EB181A0C1B041B0CD318180C1B041B0C96
:10367000C018002E02D180B2F0BD00200306000465
:103680001B0C000E1843F6E7012911DD03880239EF
:103690000230A9E7FF2102788D431543ED182B0C6A
:1036A0002D042D0C5B19180C1B041B0CC018E0E733
:1036B0000023D3E71A00BCE7F8B557464E46DE466E
:1036C0004546E0B591460A9A8A4611681B680A0485
:1036D000120C090C52181904090C52181B0C9B18D7
:1036E0001A0C1B041B0CD3181F0C1B041B0C04000E
:1036F000FF18002825D000239B46FF33012698465B
:10370000658960682900FFF75DFFC019070C000498
:10371000000C3F182E4209D05B46414673403A06E2
:103720009B463B0A120C0B401A4317002468002CDE
:10373000E6D15B46002B04D03A063F04120C3F0E44
:1037400017435046FFF710FD04004846FFF70CFDF5
:103750002318DB191A0C1B041B0CD318180C1B04A0
:103760001B0CC018C04380B2F0BCBB46B246A94691
:10377000A046F8BD10B582B0049C0094FFF79CFFF2
:1037800002B010BD10B5FFF71DFFC04380B210BDE1
:10379000F8B5CE464746040080B500282FD0002358
:1037A0009946FF33002701269846658960682900FD
:1037B000FFF708FFC019070C0004000C3F182E4249
:1037C00009D04B46414673403A0699463B0A120CD3
:1037D0000B401A4317002468002CE6D14B46002BFF
:1037E0000AD038063B04000C1B0E1843C04380B2BD
:1037F000C0BCB946B046F8BDF84380B2F8E701480E
:10380000F6E7C046FFFF00007047C0467047C0465D
:1038100010B50EF0BDFC041E07D00322C31C934359
:10382000984206D00448FDF7C5FEFDF7E1FDFDF71F
:10383000E1FD200010BDC04668AC011010B50028A5
:1038400007D00322C31C9343984205D10EF0D8FC45
:1038500010BD0348FDF7AEFE0248FDF7ABFEC046C3
:103860008CAC01109CAC011024230022F0B547461B
:10387000CE4690469946033204249446124E80B5B3
:10388000124B134FB14441463268396061460333ED
:103890008B43002C0BD015880021002200E0030090
:1038A0000132196058191900A242F8DB3B60043656
:1038B000B14504D03268976853685488E3E7C0BCC8
:1038C000B946B046F0BDC04690C9011054B20020C0
:1038D0007CBA002010B5082812D80C4B8000C458C0
:1038E000FDF786FDA3681C68002C07D022681A60CB
:1038F000A30707D1FDF77EFD200010BDFDF77AFD7F
:103900000024F9E70248FDF755FEC04690C90110B2
:10391000C8AC011070B50C0008280ED800290CD0D6
:10392000084B8000C5588B0708D1FDF761FDAB68D7
:103930001A6822601C60FDF75DFD70BD0248FDF74E
:1039400039FEC04690C90110ECAC01100C20404279
:103950007047C04670B505000E00140082B0002A02
:103960002AD043680A689A4201D102B070BD236030
:10397000200001A9019202F05FF8200001A905F0E2
:10398000B7FE01A9200000F07BFE392332686A608F
:10399000E95C343B0B40052B05D0EB69002BE4D0F0
:1039A00028009847E1E7002AF7D00907F5D5280055
:1039B000291D07F0C1FFF0E70148FDF7FBFDC046F8
:1039C0000CAD01107047C046F0B54746CE4680B5F5
:1039D00004000F0090461E0083B000286AD00B9BA5
:1039E000002B67D0002900D17BE04346002B00D19B
:1039F0007CE0002E00D17EE04A4B0025636100226E
:103A0000392320006560A560E56025860021E25429
:103A1000283004220EF000FC0A9BE5616362424BF1
:103A200025621A7899463C23E2540C9B23613B683B
:103A3000002B45D043461B68002B2FD0A360336872
:103A4000002B2ED13900200001AAFFF783FF2000B0
:103A50000B9B984700282DD1344B98461E683C2379
:103A6000E55CFF2D01D10025E0543C273C20002ED1
:103A700048D080223300520002E01B68002B41D066
:103A80009C424CD0013A002A0DD0D95DA942F4D114
:103A90000135EDB2FF2D09D02554EAE73368002B3C
:103AA000D0D0E360CEE72248FDF784FD0023002557
:103AB0002354DEE7002003B0C0BCB946B046F0BDD9
:103AC000390001AA2000FFF745FF4346A1681B68A3
:103AD000E268994211D0A36033689A42B7D0E3609C
:103AE000B5E74346134F002B00D082E7114B9846B1
:103AF000002E00D080E70F4E7EE733689A42A6D0B2
:103B0000E360A4E7FE2D08D00135EDB24B461D70F1
:103B10004346266020001C60CDE70025F6E70648F6
:103B2000FDF748FD4D39001054C000209CBA00201C
:103B300030AD011084CC01101CAD0110F0B50400B3
:103B40000D0017001E0083B0002922D0002F23D0C3
:103B5000002E24D02B680022002B15D03B68A168D2
:103B60008B4200D0A3603368E1688B4203D1002A06
:103B700004D003B0F0BDE360002AFAD16A46290000
:103B80002000FFF7E7FEF4E76268002A09D101226E
:103B9000E4E7174D002FDBD1154F002EDAD1144E7C
:103BA000D8E7684601A90193009201F045FF6846F5
:103BB00001A905F09DFD01A9684600F061FD3923CA
:103BC0002A686260E15C343B0B40052B06D0E36958
:103BD000002BDCD0200098470122BFE7002AF6D056
:103BE0000907F4D52000211D07F0A6FEEFE7C04627
:103BF00084CC011070B5041E16D04368002B17D179
:103C000039220121A35C194224D11D4B1A68A2421A
:103C10002ED01C4A1368A34204D126E01A68A2429F
:103C200003D01300002BF9D170BD22681A60FBE7A6
:103C3000051D0021280001F0FFFE0021280005F0ED
:103C400057FD0021280000F01BFD39220121A35C53
:103C50001942DAD018008843A0541B070BD4E3693B
:103C6000002BD2D020009847CFE723681360DBE712
:103C700000221A60CDE7200007F0D0FAEFE7C04637
:103C800098BA00209CBA0020014B18607047C046CB
:103C900098BA002070B5041E10D03925435DDA07AC
:103CA0000CD401221343DBB24355C269002A01D070
:103CB0009047635D05221A40052A00D070BD6268F6
:103CC000002AFBD01B07F9D52000211D07F034FE88
:103CD000F4E7C04670B5041E03D03925435D5A078A
:103CE00000D570BD04221343435506F05DFC052347
:103CF000625D1340052B05D0236A002BF1D0200014
:103D00009847EEE76368002BF6D01207F4D5200041
:103D1000211D07F011FEEFE710B500280AD0392267
:103D20000421835C194205D08B438354036A002B22
:103D300000D0984710BDC046021E0ED0084B186830
:103D4000002809D03C2102E00068002804D0435C30
:103D50000133DBB29342F7D170470020FCE7C04645
:103D60009CBA0020F8B505000026002826D00F27B1
:103D70000BE0012B24D0002B2AD12800FFF75EFD99
:103D80000136F6B2002C19D02500FDF731FBAC7BD3
:103D9000002C1AD0013CE4B2AC73FDF72BFB002CD5
:103DA0000CD12B7B2C683B40022BE2D12900082050
:103DB0000136FFF7AFFDF6B2002CE5D13000F8BDBB
:103DC00029000720FFF7A6FDDAE70348FDF7F2FB1D
:103DD0000248FDF7EFFBC04660AD011078AD011061
:103DE00010B5FDF705FB0022084B1A70FDF702FB2A
:103DF000074B1868002803D107E0C068002804D0EA
:103E0000436F002BF9D001F061FE10BD55C00020BA
:103E100004C00020F0B5C1234F46D64646460400F4
:103E20000D009146C0B55B009A423ED000220F04BF
:103E300090460F43994508D84C46433BFF3B9C4373
:103E4000012C23D03948FDF7B5FBA0239B009945F1
:103E5000F8D1032399464A4603359D43C31C934337
:103E60001035E818FFF7D4FC061E09D0434603605E
:103E70004B46041913349C432D4B44608760C36048
:103E80003000E0BCBA46B146A846F0BD0720FFF7B7
:103E900021FD061EF4D04346036043604B46037386
:103EA000434687604373C481EAE700239846214B69
:103EB00000269A4600230327994607E04246ED1A5A
:103EC000ADB21060002DDBD0804600240820FFF743
:103ED00001FD00281BD05246E31CBB43D31A1A1C19
:103EE0009BB2AB4200D92A1C4946041993B2133441
:103EF0004281114ABC43016044600581C260002ECA
:103F0000DCD1ED1AADB20600002DDDD1B8E7FDF72A
:103F10006FFA0122094B1A70FDF76CFA002E02D0DD
:103F20003000FFF71FFF0026AAE7C0468CAD011046
:103F300080000100EC0500008200010055C0002057
:103F400070B5041E32D002898A421BD98A1A07E052
:103F5000C91A238989B29B1823812468002C1FD099
:103F600063898B42F4D3227B0D040D43120701D1E8
:103F70008B4208D12068A560002801D0FFF7F2FE2F
:103F80000023236070BD636820001B1B5918FFF7D6
:103F90003DFC002807D08442ECD00648FDF70AFB20
:103FA0000548FDF707FB0548FDF704FB0448FDF74E
:103FB00001FBC046F4AD0110C0AD0110D8AD011039
:103FC000A8AD0110030070B500281FD08022520256
:103FD00091420CD2002917D002898CB2A21892B259
:103FE000944204D8057B01207F2D02D870BD0120AA
:103FF000FCE75D68691A1D001035A942F6D35960C7
:1040000059891A8164185C810020EFE70148FDF7A7
:10401000D1FAC04610AE011010B5002815D080238B
:104020005B0299420FD200290BD043898AB29A428F
:1040300009D89B1A44684381038961189B1A41601F
:104040000381002010BD0120FCE70148FDF7B2FA12
:1040500010AE011010B5002915DB002829D0002969
:104060000FD003898AB2D3189BB29A421FD84468F2
:10407000611A047B7F2C16D8416041890381521854
:104080004281002010BD4942002812D043898AB2E3
:104090009A420CD89B1A44684381038961189B1A81
:1040A00041600381EDE704001034A142E4D2012015
:1040B000E8E70148FDF77EFA10AE011010B50028C0
:1040C00002D0FFF74FFE10BD0148FDF773FAC0465E
:1040D00010AE011003000020002B04D01B6801303B
:1040E00080B2002BFAD1704710B5041E09D0FDF73D
:1040F0007FF9A37B0133A373FDF77CF9A37B002B2E
:1041000000D010BD0148FDF755FAC0461CAE0110A5
:1041100010B5002816D0002914D00268002A01D159
:1041200011E01A0003890C891B1903811368100020
:10413000002BF6D110895389834206D1088911607A
:104140001B18138110BD0200F4E70148FDF732FA95
:1041500030AE011010B50C0000281FD000291CD073
:104160000368002B07D002892189521802811800A8
:104170001B68002BF7D102894389934211D1228910
:1041800004609B180381FDF733F9A37B0133A3730C
:10419000FDF730F9A37B002B06D010BD0029FCD021
:1041A000F1E70348FDF706FA0248FDF703FAC046B7
:1041B00030AE01101CAE0110F8B54746CE46804621
:1041C00080B591460F001E00002900D192E00B89B6
:1041D000934200D28EE0002800D18BE04B4602894A
:1041E000F3189A4200DA85E0002544894B890CE0F7
:1041F000B4423AD03A899A4230D042461289A24219
:1042000043D04A46002A00D172E05B1BA41B9C42AB
:1042100000D91C004C4500D94C4643467968586883
:104220002200801949190DF0FDFF4B4636192D1952
:104230001C1BA3B2994643465C892200B4425CD35E
:104240007B89AB425CD3D3D13F68002F22D0B442EC
:104250000AD07B893A8900259A42CED13A68002A51
:10426000CBD00620404225E0002543461B689846F7
:10427000002B23D07B893A8993422ED04246548921
:10428000424612890026A242BBD142461268002A49
:10429000B7D0E6E74B46002B2CD1B44221D04346A1
:1042A0001B89934224D143461868431E9841052335
:1042B00040429843C0BCB946B046F8BD4B46002BBF
:1042C00018D13A897B8900209A42F3D13868431E7D
:1042D0009841052340429843ECE73A68002ACDD044
:1042E000BFE743461B689846002B01D05A89D6E7A2
:1042F0000020DFE710204042DCE70348FDF75AF9D1
:104300000248FDF757F9C04660AE011078AE0110C3
:1043100010B5002904D000230A89FFF74DFF10BD16
:1043200010204042FBE7C046F0B5C646050088466F
:10433000170000B500280DD000290BD0002F09D0A0
:104340006C89002B0BD0A34209D32D681B1B9BB299
:10435000002DF5D10026300080BCB846F0BD002607
:1043600003E0002DF7D000236C89E41A221CA4B2CC
:10437000BC4200D93A1C94B2424669683F1B90196E
:10438000C9182200A619BFB20DF04CFFB6B22D68B5
:10439000002FE6D1DFE7C046F8B5CE464746050018
:1043A0008846914680B5002824D0002922D0038970
:1043B00093421CD316000027002A02D112E0002DE0
:1043C0001BD06C89B44200D9340043466868D919BF
:1043D00022000DF027FF361B2D683F19002EEED16D
:1043E000B9450DD10020C0BCB946B046F8BD01208A
:1043F0004042F8E710204042F5E70348FDF7DAF8BD
:104400000248FDF7D7F8C04694AE0110ACAE0110DB
:10441000F0B5D6464F46464605008A46C0B5002848
:1044200005D144E02D68DB1B9BB2002D3FD06F8986
:104430009F42F7D9298998188146814237DB6868FD
:10444000C018FB1A9A422EDD9BB21A0051469846BC
:104450000DF0E8FE4B46DF1BBBB29946002B1CD08B
:104460002F68002F29D03B894B4520D34E4600248E
:1044700001E0002F1ED07D89B54200D935004346AA
:10448000191978682A0051440DF0CCFE761B3F685C
:104490006419002EEDD1A14512D10020E0BCBA462E
:1044A000B146A846F0BD51460DF0BCFEF5E701202F
:1044B0004042F3E70448FDF77DF810204042EDE765
:1044C0000248FDF777F8C04694AE0110ACAE01107B
:1044D0000B0070B5150011891A00FFF79BFC041E34
:1044E00006D0002329002A89FFF766FE002801D1A3
:1044F000200070BD0148FDF75DF8C046C4AE011054
:1045000005E043898B4205D8C91A006889B20028A2
:10451000F7D1704743685A54FBE7C046F0B5DE4612
:10452000454657464E468046E0B5514F83B0396800
:10453000786908F025FC43465A684E4B557A1C684A
:104540009B46002C00D18EE0002843D13C2300265E
:104550009946844604E0E3682600002B32D01C0014
:10456000237CAB42F7D1217A002906D048467B68EC
:104570001B5C0133DBB29942EDD12368002B02D0E2
:1045800079698B42E7D10121637C194203D06168CC
:104590003B699942DFD163699A46002BDBD00192D7
:1045A00021004246A069344BD047002850D14346F1
:1045B0005A68019B934258D102239C46E368260027
:1045C000002BCCD1604603B0F0BCBB46B246A94636
:1045D000A046F0BD0020012300269A46019004E089
:1045E000E3682600002B31D01C00237CAB42F7D1BE
:1045F000217A002908D07B689C463C236046C35C36
:104600000133DBB29942EBD12368002BE8D151464C
:10461000637C194203D061683B699942E0D16369C8
:104620009946002BDCD0019221004246A069124B32
:10463000C84700280CD143465A68019B9A4214D1BE
:1046400002230193E3682600002BCDD10198BAE73D
:10465000002E06D0E368F3605B461B68E3605B46B0
:104660001C600120AFE70020ADE70448FCF7A2FF83
:1046700000210020D4BA002010210020D8AE011063
:1046800010B5002811D00268002A0ED000290CD0E5
:104690000B68002B09D0094B1B68002B05D01C6848
:1046A000944203D0DB68002BF9D110BD0A681A6070
:1046B000DB68002BF9D00268F1E7C046D4BA0020CD
:1046C0007047C04610B5041E20D0037D042B03D0D4
:1046D000072B0AD0032B11D1200003F0DFFB0523A9
:1046E000002807D0431C0BD010BD03F0D7FB0028D7
:1046F000F8D109232000237503F044FF0020F3E7DD
:104700000822638B002013436383EDE70148FCF725
:1047100051FFC04624AF011070B50600806F00281D
:1047200003D0FFF7CBFC0023B367746F002C18D0C5
:104730006068256800280CD0FFF7C0FC2100042029
:10474000FFF7E8F8002D0AD02C00606825680028E3
:10475000F2D121000420FFF7DDF8002DF4D1002371
:1047600073670123F46E5B423386002C16D06068B9
:10477000256800280CD0FFF7A1FC21000420FFF7DA
:10478000C9F8002D0AD02C00606825680028F2D1F5
:1047900021000420FFF7BEF8002DF4D1346F002C67
:1047A00016D06068256800280CD0FFF787FC210030
:1047B0000420FFF7AFF8002D0AD02C0060682568B0
:1047C0000028F2D121000420FFF7A4F8002DF4D135
:1047D00000236822F3663367B35270BD10B5FDF74E
:1047E000B3F9044A80049446034B800C604418805B
:1047F00010BDC04600C0FFFF9804002010B5037D27
:104800000100012B03D00220FFF784F810BD0148FE
:10481000FCF7D0FE30AF0110F8B5CE46474680B564
:10482000002961D0002864D0037D002B5ED1002ACE
:104830002BD0314E3700103733681B68002B03D163
:1048400013E0DB68002B10D0DC8A9442F9D11C689D
:10485000002C04D00D68002D01D0AC42F1D108200D
:104860004042C0BCB946B046F8BD0436B742E3D1B9
:104870000B68002B00D00360204BC2821A681860BE
:10488000C26004F0D3FA0020EBE71D4B8026984667
:104890001A881C4B184F9C4610239946F601B944C0
:1048A000013292B2624514D03D002B681B68002B88
:1048B00003D111E0DB68002B0ED0DC8A9442F9D1E1
:1048C000013EB6B2002EEBD143461A800220404290
:1048D000C7E7C0221202E7E704354D45E5D143465C
:1048E0001A80002AC4D1F1E707499BE7062040421D
:1048F000B7E710204042B4E720CA011008C00020EA
:1049000098040020FFFF000084CC011070B5041E45
:1049100033D0037D002B30D10320FEF7DBFF051ED3
:104920002BD0012223690361E38A0275C382627D71
:104930004275A268826022680260002B0CD0154A82
:1049400013689C4204D11FE0DA68944217D0130028
:10495000002BF9D10023E360237D012B17D0210028
:104960000220FEF7D7FF0C4BAB610C4B1A681D60A1
:10497000EA6004F05BFA280070BD0025FBE7E268FE
:10498000DA600023E360E7E7E3681360E2E70448E6
:10499000FCF710FE08C00020E952001010C00020F3
:1049A00030AF0110F8B5031E1BD0048DC16A466AF2
:1049B0005D8E0F4F601A80192A1CBD420CD892B22E
:1049C000821A07D5891B09D48022520291420BD248
:1049D00000208CB25C85F8BD3A1CF0E70024002072
:1049E000F8E70448FCF7E6FD0348FCF7E3FDC046A2
:1049F000D016000044AF011068AF0110F8B50028D0
:104A00001DD0037D012B34D0048D1D4A61188BB25B
:104A100093421BD91300466A458E1A4FC46A038518
:104A2000B218291CBD420BD889B20919511A11D5E7
:104A3000A41B1BD480235B029C421DD24485F8BD7D
:104A4000391C89B20919511AF2D403E09C42E1D809
:104A50001A00E0E743850C4B121B9A42EFD9022261
:104A6000438B1343438303F08DFDE8E70023438525
:104A7000E5E70648FCF79EFD0548FCF79BFDC046B0
:104A8000A02D0000D0160000670B000084AF0110BD
:104A900068AF0110C54BF0B54E469946DE46574605
:104AA00045464A46E0B51B6889B001331360C04AE9
:104AB0001378059201331370BE4B0793BE4B0693D8
:104AC000079B1C68002C00D1C7E000239B4649E0EF
:104AD000012290460B2B00D8E8E0062D00D10FE113
:104AE000637A1B0758D5042D00D0E8E14B461F68B8
:104AF000236AFA21FF1A9423E35849009A4698231F
:104B0000E6580433E058704350440CF03DFF8742B0
:104B100000D8BDE143460133DBB2984601239A46F3
:104B2000666F002E00D1FDE04023E25E53009B182B
:104B30005B00BB4241D9257D032D5AD0092D00D100
:104B400009E14346002B00D0ECE0237F627F013374
:104B5000DBB2E56823779A4200D810E1A3462C0027
:104B6000002C7AD0257D002D00D1E6E1012D00D169
:104B7000E0E10A2D00D1DAE1059BA27F1B789A4281
:104B800000D11FE1A3774223E35C022DA0D1052BC6
:104B900000D88BE001239846666F002E00D174E1A7
:104BA0004B461F68236AFF1A00239A464023E25EA1
:104BB00053009B185B00BB42BDD870683568002865
:104BC0000CD0FFF77BFA31000420FEF7A3FE002D86
:104BD0000AD02E00706835680028F2D13100042018
:104BE000FEF798FE002DF4D10023257D6367032D89
:104BF000A4D14B46226A1B689B1A282B00D8B1E02F
:104C00009023E6582000FFF787FD5A46079B1B6854
:104C1000002A00D167E19C4200D197E1E368D360AC
:104C20005346002B00D04EE1237D2569E768012B18
:104C300000D188E121000220FEF76CFE0023069CD3
:104C40002370002E07D00D2128004942B047237859
:104C5000002B00D034E73C1E84D1584E002431682C
:104C60004D46002904D11AE00C00C968002916D06D
:104C70000B7D0A2B00D063E12B680A6A9B1AF02B8C
:104C8000F2D93368002C00D13AE1994200D166E1B3
:104C9000CF68E7600220FEF73DFE391EE8D109B07B
:104CA000F0BCBB46B246A946A046F0BDA123E35CDA
:104CB0009846002B00D188E0236F002B00D051E1F3
:104CC000E36E002B00D144E1A223E35C0B2B00D95F
:104CD00006E14246A0213A4BD25C635C934200D28B
:104CE00007E16023E15A002925D1200003F042FFAB
:104CF000002826D0257D00239846062D00D0EFE61B
:104D0000638BDB0600D5B2E0637A1B0700D543E76F
:104D1000666F002E00D043E700239A464346002BDF
:104D200000D112E79023E658012D00D86DE70A2D37
:104D300000D067E769E7200002F0D6FF002800D125
:104D4000EEE0A0230022E254A132A35C062BD1D8CE
:104D50000133A354CEE74B46226A1B689B1AF02B03
:104D600000D94DE74346002B00D049E7237F627FFF
:104D70000133DBB2E56823779A4200D9EEE60023DF
:104D8000069A237713708C33E358002B0AD0210046
:104D900020699847069B1B78002B00D090E60028DE
:104DA00000D0DBE6200003F0EDFBD7E614C00020C6
:104DB0005AC0002004C0002058C0002018C00020A5
:104DC0002FCA0110A346E468CAE63023E25E6849B0
:104DD000238E8B4202D801331AB222864023E35E2F
:104DE000934200DD79E6200003F07AF9257D002862
:104DF00007D0236F002B00D06FE6E36E002B00D1AD
:104E00006BE6022D14D03C22A35E3E21625EDB10D5
:104E10009B184222A15C57480A1C0C2977D8D2B2B1
:104E2000825C93408022120293426EDA4022A352A7
:104E30000023482023866033E15A255A628E0B1CDA
:104E4000A94200D92B1C9BB250005B0885B2191CEB
:104E5000AB4200D2011C4A23E152023BE252002243
:104E600022332000E25203F0B3FD257D35E64B46A8
:104E70001F68236AFF1A282F00D849E743460133E9
:104E8000DBB2984600239A464AE600239A4652E649
:104E9000A323E35CFA215E433000490050440CF048
:104EA00073FD874200D833E7200003F0F5FD0028AA
:104EB00000D071E6A322A35C0133A3546CE6072D56
:104EC00000D113E668E6238B626A216D0293E38AC0
:104ED00020000193231D0093230003F0CFF9A3E6E4
:104EE00001239846F9E59C423FD1E368079A136095
:104EF00096E60133DBB26354934200D2FBE6F0E660
:104F0000994229D1CF683760C4E61B4B8EE70C224B
:104F1000D2B2825C934080221202934286DBF4E795
:104F2000200003F02FFB002800D00AE7E2E6134838
:104F3000FCF740FB1248FCF73DFB1248FCF73AFB3C
:104F40001148FCF737FB1148FCF734FB1048FCF71D
:104F500031FB1048FCF72EFB0F48FCF72BFB0F48EA
:104F6000FCF728FB0E48FCF725FB0E48FCF722FB5C
:104F7000FE7F000038CA0110FF7F000004B001105E
:104F8000D8AF0110ACAF0110F4B0011030AF011078
:104F90009CB0011064B001104CB1011024B101109B
:104FA00030B00110C8B0011070B5041E16D0606892
:104FB000256800280CD0FFF781F821000420FEF7B7
:104FC000A9FC002D0AD02C00606825680028F2D1C9
:104FD00021000420FEF79EFC002DF4D170BDC046D8
:104FE00010B5041E08D04068002801D0FFF766F80D
:104FF00021000420FEF78EFC10BDC04670B5051ED2
:105000000DD00420FEF766FC041E06D010222900F5
:105010000DF008F96068FFF767F8200070BD0148DF
:10502000FCF7C8FA74B10110002800D00161704784
:1050300010B5002804D0037D012B02D08423C15079
:1050400010BD0148FCF7B6FA90B10110002802D05B
:10505000037D012B00D070478161FCE710B500286B
:1050600006D0037D012B03D90A2B01D0FFF754FB97
:1050700010BDC04610B50C1E47D0002848D00368AC
:105080008B4204D12FE0DA68A24224D01300002B17
:10509000F9D10023E360237D002B0FD1638BDA0766
:1050A00029D4E36E002B36D1236F002B36D1636FEA
:1050B000002B36D100232375E38210BD0A2BF0D0DC
:1050C000012BF7D02000FFF727FB237D0A2BE8D028
:1050D000012BEFD0E2E7E268DA600023E360237D92
:1050E000002BEBD1DAE7CB6803600023E360237D7C
:1050F000002BE3D1D2E7022213436383200003F0A5
:1051000041FA237D012BD5D0CBE70748FCF752FAB3
:105110000648FCF74FFA0648FCF74CFA0548FCF73E
:1051200049FA0548FCF746FAB8B10110D4B10110AC
:10513000F4B101100CB2011028B20110F0B54E46C6
:105140004546DE465746E0B505000E0087B000280C
:1051500076D0037D012B00D1B0E00A2B00D19BE07B
:10516000026D9246426A05929022825893460269E5
:105170009146C28A9046002B69D1002A6FD1002344
:10518000002698462C6F002C16D0606827680028EF
:105190000CD0FEF793FF21000420FEF7BBFB002F8D
:1051A0000AD03C00606827680028F2D12100042062
:1051B000FEF7B0FB002FF4D1EC6E002C16D0606827
:1051C000276800280CD0FEF779FF21000420FEF7A5
:1051D000A1FB002F0AD03C00606827680028F2D1AC
:1051E00021000420FEF796FB002FF4D16C6F002CF9
:1051F00016D06068276800280CD0FEF75FFF2100FA
:105200000420FEF787FB002F0AD03C006068276867
:105210000028F2D121000420FEF77CFB002FF4D1FE
:10522000002E2CD12B7D012B45D029000220FEF72A
:1052300071FB5B46002B03D00D2148464942D847FD
:1052400007B0F0BCBB46B246A946A046F0BD290057
:105250001C48FFF70FFF01221B4B1A7092E71B4AF5
:105260001368834208D1C36813600023EB6086E7AC
:10527000DA68AA421CD01300002BF9D1F5E72B8B7A
:1052800051460293434601932B1D009328002B00A7
:10529000059A02F0F3FFC5E729000D48FFF7EAFE83
:1052A0002B7D012B07D029000220FEF733FBC7E737
:1052B000EA68DA60D9E70748FCF77CF90648FCF7AA
:1052C00079F9C04604C0002058C0002008C0002062
:1052D00018C0002030AF011040B2011010B50121FC
:1052E000FFF72CFF10BDC046080010B5002905D0FF
:1052F0000121FFF723FF0D20404210BD0148FCF7BC
:1053000059F9C04674B20110F0B5C646060000B5A2
:105310000220FEF7DFFA041E2AD0A422002120007A
:105320000CF07AFF6423624A6675E252614B4022B8
:10533000A362FF23E372F93BA352E3875E4B44323F
:1053400023635E4B1B6823625D4B1B78A3775D4B29
:10535000A3645D4BA35094235C4AE2505C4A04333F
:10536000E25009220433E250200080BCB846F0BD70
:10537000584B082798461D68002D0AD02800438BFB
:10538000ED681F42F8D0BB434383FFF79BF9002D24
:10539000F4D1514B1B68002B11D00021474A1068F3
:1053A0001A6A821A914201D811001C00DB68002B96
:1053B000F6D1002C03D001212000FFF7BFFE022010
:1053C000FEF788FA041EA8D143461B68002B16D0AE
:1053D0003A4A0021106802E0DB68002B09D01A7DF0
:1053E000092AF9D11A6A821A9142F5D811001C00D3
:1053F000F2E7002C03D000212000FFF79FFE0220DF
:10540000FEF768FA041E00D087E743461B68002BAE
:1054100016D02A4A0021106802E0DB68002B09D070
:105420001A7D082AF9D11A6A821A9142F5D8110018
:105430001C00F2E7002C03D000212000FFF77EFEC5
:105440000220FEF747FA041E00D066E773B2002B75
:105450002BDB002E22D0320043461B68013AD2B229
:10546000002B1BD015490F680021884607E0186AF9
:105470003A1A90461C000A00DB68002B08D0597DC0
:105480009142F4D3F8D1186A3D1A4545F4D3EFE7B9
:10549000002C03D001212000FFF750FE0220FEF770
:1054A00019FA041E00D038E75EE77F22D4E7C04631
:1054B000A02D0000A02DA02DFFFF180214C0002079
:1054C0005AC000200100A02D7156001000DD6D00B3
:1054D000F824010004C0002018C0002010B54020AE
:1054E000FFF712FF10BDC04630B5040085B000289C
:1054F00000D19DE0037D002903D0042B1AD0072B97
:1055000018D0012B00D168E0022B4AD0002B5DD1CE
:10551000E38A002B4FD04B4A1368A34205D184E0A5
:10552000DA68A24200D17DE01300002BF8D10023FD
:10553000E36040E0A36F002B44D0638BDB0600D414
:1055400079E0238B626A216D0293E38A2000019344
:10555000231D0093230002F091FE237D012B04D92B
:105560000A2B02D02000FFF7D7F8374A1368A3426E
:1055700014D1E368136000230122E360334B1A70F7
:10558000334B1B68A34225D0237D012B13D1314817
:10559000FCF710F8DA68A24241D01300002BF9D1D1
:1055A000E9E721002848FFF765FD0122274B1A7023
:1055B000237D012BEBD021000220FEF7ABF9002068
:1055C00005B030BD244B228D9A42B6D12000FFF7A2
:1055D00079F8F5E702F07AF8F1E7204900200D00AC
:1055E0000C354B681B68002B05D0DA6F944211D044
:1055F000DB68002BF9D104318D42F2D1210018482B
:10560000FFF738FD237D012B18D021000320FEF782
:1056100081F9D4E7D867DB68002BE6D1EBE7E268D5
:10562000DA60A8E7E268DA6081E7E36813607EE7A2
:105630000C48FBF7BFFF0C48FBF7BCFF0B48FBF720
:10564000B9FFC04608C0002004C0002058C0002098
:105650000CC0002030AF0110A02D000020CA0110A6
:1056600010C0002094B20110B4B20110D0B20110E9
:10567000F0B5C6460800140000B500294AD0002A3B
:105680002CD00B7D012B48D01389098D264ACB18CD
:105690009BB293421ED913009046476A468E234A16
:1056A000C56A0385B844311C964200D9111C424694
:1056B00089B24919511A21D5ED1B1CD480235B02F4
:1056C0009D422DD245852000FEF7F8FC002080BCCD
:1056D000B846F0BD9942DED81A00DDE7002BF5D1BF
:1056E0000B7D012B03D010224B8B13434B830121E5
:1056F000FFF7FAFEEBE700234385E4E743850C4B15
:10570000521B9A42DFD90222438B1343438302F098
:1057100039FFD8E710204042D9E70648FBF74AFF97
:105720000548FBF747FFC046A02D0000D01600003B
:10573000670B000084AF011068AF0110F8B5041EBC
:1057400032D00023866F777B83678433C558002D62
:105750000CD00023320021000069A84700280BD09C
:105760000D301ED00520A6674042F8BD3189FFF7F5
:1057700045F93000FEF7A2FCBF0610D5238D0C4A78
:10578000934201D0013323858423E558002D06D0B0
:105790000023002221002069A8470D3001D00020FD
:1057A000E3E70D204042E0E710204042DDE7C0463D
:1057B000A02D0000F0B54F464646D646C0B5204D58
:1057C000204F2B7801332B701F4B994601239846AD
:1057D0004B461C68002C1BD008262B78A27F9A42CF
:1057E0001BD04246A377638B1A421ED11E4216D1AC
:1057F000E3689A46A36F002B07D0002320003B707C
:10580000FFF79CFF3B78002BE2D15446002CE4D1FB
:10581000E0BCBA46B146A846F0BDE468F6E7B3433B
:1058200020006383FEF74EFFE2E702221343638307
:10583000200002F0A7FE0322638B93436383D5E726
:105840005AC0002058C0002004C0002010B5FFF747
:10585000B1FF054A13780133DBB21370DB0700D4C4
:1058600010BDFFF717F9FBE759C0002030B5040061
:1058700085B0002800D198E0037D012B00D16FE0B6
:105880001021428B0A434283042B36D1A36F002B95
:105890004BD0238B626A216D0293E38A200001932F
:1058A000231D0093230002F0E9FC237D012B04D982
:1058B0000A2B02D02000FEF72FFF3F4A13689C42BC
:1058C00018D1E368136000230122E3603B4B1A7098
:1058D0003B4B1B689C4230D0237D012B3AD02100EA
:1058E0000220FEF717F8002005B030BDDA689442B8
:1058F00033D01300002BF9D1E5E7072BC6D0022BDC
:105900001ED016D8C38A002BE9D02E4A13689842BD
:1059100008D1C36813600023E360E0E7DA689442CB
:1059200040D01300002BF9D1F5E7274B228D9A4286
:10593000AFD12000FEF7C6FED6E701F0C7FED2E7E2
:1059400021001D48FFF796FB01221C4B1A70237D96
:10595000012BC4D11D48FBF72DFEE268DA60B2E7E7
:105960001B4900200D000C354B681B68002B05D02F
:10597000DA6F944211D0DB68002BF9D10431A942CF
:10598000F2D121001348FFF775FB237D012B0FD0C7
:1059900021000320FDF7BEFFA5E7D867DB68002BD9
:1059A000E6D1EBE7E268DA60B5E7102040429BE71A
:1059B0000948FBF7FFFDC04604C0002058C0002086
:1059C0000CC0002008C00020A02D000030AF011046
:1059D00020CA011010C00020D0B2011010B500285C
:1059E00006D0054B054A186812688018186010BD6B
:1059F0000348FBF7DFFDC0469404002014C00020DC
:105A0000ECB2011010B5002A10D000290DD00A8E7A
:105A1000002A0AD0131C282A00D22823283B1A1C4B
:105A20009BB2834200D9021C90B210BD0148FBF723
:105A3000C1FDC04608B3011070B505000E00002876
:105A400002D00368002B00D170BD1D4A10680028E9
:105A500004D10CE0002C0AD020002B680268C46836
:105A60009A42F7D10121FFF769FB002CF4D1154BC5
:105A70001C68002C0AD022682B682000E4689A4237
:105A8000F7D10121FFF75AFB002CF4D1002EDBD017
:105A90003368002BD8D00C4B1A68002AD4D02B685E
:105AA0001168994205D0D268002ACDD01168994278
:105AB000F9D133681360D268002AF0D1C4E7C04638
:105AC00004C0002008C0002010C0002070B5446F42
:105AD0000600002C18D06068256800280CD0FEF75E
